{
  "_format": "hh-sol-artifact-1",
  "contractName": "TrafficSystem",
  "sourceName": "contracts/Detection.sol",
  "abi": [
    {
      "inputs": [
        {
          "internalType": "string",
          "name": "licenseNumber",
          "type": "string"
        },
        {
          "internalType": "uint256",
          "name": "noOfSuspended",
          "type": "uint256"
        }
      ],
      "name": "assignPenalty",
      "outputs": [],
      "stateMutability": "nonpayable",
      "type": "function"
    },
    {
      "inputs": [
        {
          "internalType": "string",
          "name": "drivingLicenseNumber",
          "type": "string"
        }
      ],
      "name": "checkViolations",
      "outputs": [
        {
          "components": [
            {
              "internalType": "uint256",
              "name": "violationDate",
              "type": "uint256"
            },
            {
              "internalType": "uint8",
              "name": "violationType",
              "type": "uint8"
            }
          ],
          "internalType": "struct TrafficSystem.Violation[]",
          "name": "",
          "type": "tuple[]"
        },
        {
          "internalType": "bool",
          "name": "",
          "type": "bool"
        }
      ],
      "stateMutability": "view",
      "type": "function"
    },
    {
      "inputs": [],
      "name": "demeritPoints",
      "outputs": [
        {
          "internalType": "uint256",
          "name": "",
          "type": "uint256"
        }
      ],
      "stateMutability": "view",
      "type": "function"
    },
    {
      "inputs": [],
      "name": "fines",
      "outputs": [
        {
          "internalType": "uint256",
          "name": "",
          "type": "uint256"
        }
      ],
      "stateMutability": "view",
      "type": "function"
    },
    {
      "inputs": [],
      "name": "isDriverLicenseSuspended",
      "outputs": [
        {
          "internalType": "bool",
          "name": "",
          "type": "bool"
        }
      ],
      "stateMutability": "view",
      "type": "function"
    },
    {
      "inputs": [],
      "name": "penalty",
      "outputs": [
        {
          "internalType": "string",
          "name": "",
          "type": "string"
        }
      ],
      "stateMutability": "view",
      "type": "function"
    },
    {
      "inputs": [
        {
          "internalType": "uint8",
          "name": "offenceType",
          "type": "uint8"
        }
      ],
      "name": "processViolation",
      "outputs": [],
      "stateMutability": "nonpayable",
      "type": "function"
    },
    {
      "inputs": [],
      "name": "totalPoints",
      "outputs": [
        {
          "internalType": "uint256",
          "name": "",
          "type": "uint256"
        }
      ],
      "stateMutability": "view",
      "type": "function"
    },
    {
      "inputs": [
        {
          "internalType": "string",
          "name": "",
          "type": "string"
        },
        {
          "internalType": "uint256",
          "name": "",
          "type": "uint256"
        }
      ],
      "name": "violationsRegistry",
      "outputs": [
        {
          "internalType": "uint256",
          "name": "violationDate",
          "type": "uint256"
        },
        {
          "internalType": "uint8",
          "name": "violationType",
          "type": "uint8"
        }
      ],
      "stateMutability": "view",
      "type": "function"
    }
  ],
  "bytecode": "0x608060405234801561001057600080fd5b50611273806100206000396000f3fe608060405234801561001057600080fd5b50600436106100935760003560e01c8063a64e73a211610066578063a64e73a214610121578063aa95ee331461013f578063b45588071461015d578063c9bd289314610179578063eca933db1461019757610093565b80630edd2ffc146100985780631d0f3d76146100b6578063567142be146100d25780638e284b18146100f0575b600080fd5b6100a06101c8565b6040516100ad91906107af565b60405180910390f35b6100d060048036038101906100cb9190610950565b610256565b005b6100da61034a565b6040516100e791906109bb565b60405180910390f35b61010a60048036038101906101059190610950565b610350565b6040516101189291906109f2565b60405180910390f35b6101296103b4565b60405161013691906109bb565b60405180910390f35b6101476103ba565b6040516101549190610a36565b60405180910390f35b61017760048036038101906101729190610a7d565b6103cd565b005b61018161065e565b60405161018e91906109bb565b60405180910390f35b6101b160048036038101906101ac9190610aaa565b610664565b6040516101bf929190610bef565b60405180910390f35b600480546101d590610c4e565b80601f016020809104026020016040519081016040528092919081815260200182805461020190610c4e565b801561024e5780601f106102235761010080835404028352916020019161024e565b820191906000526020600020905b81548152906001019060200180831161023157829003601f168201915b505050505081565b60018103610292578160405160200161026f9190610d53565b6040516020818303038152906040526004908161028c9190610f2c565b50610346565b600281036102ce57816040516020016102ab919061104a565b604051602081830303815290604052600490816102c89190610f2c565b50610345565b6003810361030a57816040516020016102e791906110e9565b604051602081830303815290604052600490816103049190610f2c565b50610344565b600381111561034357816040516020016103249190611162565b604051602081830303815290604052600490816103419190610f2c565b505b5b5b5b5050565b60025481565b600582805160208101820180518482526020830160208501208183528095505050505050818154811061038257600080fd5b9060005260206000209060020201600091509150508060000154908060010160009054906101000a900460ff16905082565b60005481565b600360009054906101000a900460ff1681565b60018160ff16036103ee5760056000819055506101f4600181905550610600565b60038160ff1614806104035750600b8160ff16145b1561041e57600f6000819055506113886001819055506105ff565b60048160ff1614806104335750600e8160ff16145b80610441575060158160ff16145b1561045c5760146000819055506127106001819055506105fe565b60028160ff161480610471575060058160ff16145b8061047f575060128160ff16145b8061048d575060138160ff16145b8061049b575060178160ff16145b156104b657600a6000819055506107d06001819055506105fd565b60068160ff1614806104cb575060098160ff16145b156104e657600a600081905550610bb86001819055506105fc565b60078160ff1603610507576014600081905550613a986001819055506105fb565b60088160ff160361052857600a6000819055506105dc6001819055506105fa565b600a8160ff16148061053d5750600c8160ff16145b8061054b5750600d8160ff16145b1561056657600f600081905550611b586001819055506105f9565b600f8160ff160361058757601460008190555061c3506001819055506105f8565b60108160ff16036105a8576014600081905550614e206001819055506105f7565b60118160ff1614806105bd575060148160ff16145b156105d857600a6000819055506103e86001819055506105f6565b60168160ff16036105f55760146000819055506161a86001819055505b5b5b5b5b5b5b5b5b5b5b5b6000546002600082825461061491906111be565b9250508190555060646002541061065b576001600360006101000a81548160ff02191690831515021790555060646002600082825461065391906111f2565b925050819055505b50565b60015481565b606060006005836040516106789190611226565b9081526020016040518091039020600360009054906101000a900460ff1681805480602002602001604051908101604052809291908181526020016000905b828210156107105783829060005260206000209060020201604051806040016040529081600082015481526020016001820160009054906101000a900460ff1660ff1660ff1681525050815260200190600101906106b7565b50505050915091509150915091565b600081519050919050565b600082825260208201905092915050565b60005b8381101561075957808201518184015260208101905061073e565b60008484015250505050565b6000601f19601f8301169050919050565b60006107818261071f565b61078b818561072a565b935061079b81856020860161073b565b6107a481610765565b840191505092915050565b600060208201905081810360008301526107c98184610776565b905092915050565b6000604051905090565b600080fd5b600080fd5b600080fd5b600080fd5b7f4e487b7100000000000000000000000000000000000000000000000000000000600052604160045260246000fd5b61082782610765565b810181811067ffffffffffffffff82111715610846576108456107ef565b5b80604052505050565b60006108596107d1565b9050610865828261081e565b919050565b600067ffffffffffffffff821115610885576108846107ef565b5b61088e82610765565b9050602081019050919050565b82818337600083830152505050565b60006108bd6108b88461086a565b61084f565b9050828152602081018484840111156108d9576108d86107ea565b5b6108e484828561089b565b509392505050565b600082601f830112610901576109006107e5565b5b81356109118482602086016108aa565b91505092915050565b6000819050919050565b61092d8161091a565b811461093857600080fd5b50565b60008135905061094a81610924565b92915050565b60008060408385031215610967576109666107db565b5b600083013567ffffffffffffffff811115610985576109846107e0565b5b610991858286016108ec565b92505060206109a28582860161093b565b9150509250929050565b6109b58161091a565b82525050565b60006020820190506109d060008301846109ac565b92915050565b600060ff82169050919050565b6109ec816109d6565b82525050565b6000604082019050610a0760008301856109ac565b610a1460208301846109e3565b9392505050565b60008115159050919050565b610a3081610a1b565b82525050565b6000602082019050610a4b6000830184610a27565b92915050565b610a5a816109d6565b8114610a6557600080fd5b50565b600081359050610a7781610a51565b92915050565b600060208284031215610a9357610a926107db565b5b6000610aa184828501610a68565b91505092915050565b600060208284031215610ac057610abf6107db565b5b600082013567ffffffffffffffff811115610ade57610add6107e0565b5b610aea848285016108ec565b91505092915050565b600081519050919050565b600082825260208201905092915050565b6000819050602082019050919050565b610b288161091a565b82525050565b610b37816109d6565b82525050565b604082016000820151610b536000850182610b1f565b506020820151610b666020850182610b2e565b50505050565b6000610b788383610b3d565b60408301905092915050565b6000602082019050919050565b6000610b9c82610af3565b610ba68185610afe565b9350610bb183610b0f565b8060005b83811015610be2578151610bc98882610b6c565b9750610bd483610b84565b925050600181019050610bb5565b5085935050505092915050565b60006040820190508181036000830152610c098185610b91565b9050610c186020830184610a27565b9392505050565b7f4e487b7100000000000000000000000000000000000000000000000000000000600052602260045260246000fd5b60006002820490506001821680610c6657607f821691505b602082108103610c7957610c78610c1f565b5b50919050565b600081905092915050565b7f4c6963656e736520000000000000000000000000000000000000000000000000600082015250565b6000610cc0600883610c7f565b9150610ccb82610c8a565b600882019050919050565b6000610ce18261071f565b610ceb8185610c7f565b9350610cfb81856020860161073b565b80840191505092915050565b7f2073757370656e64656420666f722036206d6f6e746873000000000000000000600082015250565b6000610d3d601783610c7f565b9150610d4882610d07565b601782019050919050565b6000610d5e82610cb3565b9150610d6a8284610cd6565b9150610d7582610d30565b915081905092915050565b60008190508160005260206000209050919050565b60006020601f8301049050919050565b600082821b905092915050565b600060088302610de27fffffffffffffffffffffffffffffffffffffffffffffffffffffffffffffffff82610da5565b610dec8683610da5565b95508019841693508086168417925050509392505050565b6000819050919050565b6000610e29610e24610e1f8461091a565b610e04565b61091a565b9050919050565b6000819050919050565b610e4383610e0e565b610e57610e4f82610e30565b848454610db2565b825550505050565b600090565b610e6c610e5f565b610e77818484610e3a565b505050565b5b81811015610e9b57610e90600082610e64565b600181019050610e7d565b5050565b601f821115610ee057610eb181610d80565b610eba84610d95565b81016020851015610ec9578190505b610edd610ed585610d95565b830182610e7c565b50505b505050565b600082821c905092915050565b6000610f0360001984600802610ee5565b1980831691505092915050565b6000610f1c8383610ef2565b9150826002028217905092915050565b610f358261071f565b67ffffffffffffffff811115610f4e57610f4d6107ef565b5b610f588254610c4e565b610f63828285610e9f565b600060209050601f831160018114610f965760008415610f84578287015190505b610f8e8582610f10565b865550610ff6565b601f198416610fa486610d80565b60005b82811015610fcc57848901518255600182019150602085019450602081019050610fa7565b86831015610fe95784890151610fe5601f891682610ef2565b8355505b6001600288020188555050505b505050505050565b7f2073757370656e64656420666f72203132206d6f6e7468730000000000000000600082015250565b6000611034601883610c7f565b915061103f82610ffe565b601882019050919050565b600061105582610cb3565b91506110618284610cd6565b915061106c82611027565b915081905092915050565b7f2073757370656e64656420666f722036206d6f6e74687320616e6420746f206260008201527f65207265766f6b65640000000000000000000000000000000000000000000000602082015250565b60006110d3602983610c7f565b91506110de82611077565b602982019050919050565b60006110f482610cb3565b91506111008284610cd6565b915061110b826110c6565b915081905092915050565b7f207265766f6b6564000000000000000000000000000000000000000000000000600082015250565b600061114c600883610c7f565b915061115782611116565b600882019050919050565b600061116d82610cb3565b91506111798284610cd6565b91506111848261113f565b915081905092915050565b7f4e487b7100000000000000000000000000000000000000000000000000000000600052601160045260246000fd5b60006111c98261091a565b91506111d48361091a565b92508282019050808211156111ec576111eb61118f565b5b92915050565b60006111fd8261091a565b91506112088361091a565b92508282039050818111156112205761121f61118f565b5b92915050565b60006112328284610cd6565b91508190509291505056fea2646970667358221220102cdcabab24a2dfde5545f7242557f8ad4e45d6a8c39674b78e9ac2ad593fff64736f6c63430008130033",
  "linkReferences": {},
  "deployedLinkReferences": {}
}